:020000040800F2
:10000000B00500204501000857240008C91A00085F
:1000100055240008D9080008212B00080000000022
:100020000000000000000000000000007127000830
:10003000DB0800080000000079240008732700088E
:100040005F0100085F0100085F0100085F01000810
:100050005F0100085F0100085F0100085F01000800
:100060005F0100085F0100085F0100085F010008F0
:100070005F0100085F0100085F0100085F010008E0
:100080005F0100085F0100085F0100085F010008D0
:100090005F0100085F0100085F0100085F010008C0
:1000A0005F0100085F0100085F0100085F010008B0
:1000B0005F0100085F0100085F0100085F010008A0
:1000C0005F0100085F0100085F0100085F01000890
:1000D0005F0100085F0100085F0100085F01000880
:1000E0005F0100085F0100085F0100085F01000870
:1000F0005F0100085F0100085F0100085F01000860
:100100005F0100085F0100085F0100085F0100084F
:100110005F0100085F0100085F0100085F0100083F
:100120005F0100085F0100085F0100085F0100082F
:10013000DFF80CD000F0BEFB00480047052E000899
:10014000B00500200648804706480047FEE7FEE766
:10015000FEE7FEE7FEE7FEE7FEE7FEE7FEE7FEE777
:10016000B927000831010008202A04DB203A21FACF
:1001700002F00021704721FA02F3D040C2F12002C0
:10018000914008431946704740EA01039B0703D09A
:1001900009E008C9121F08C0042AFAD203E011F8C6
:1001A000013B00F8013B521EF9D27047D2B201E088
:1001B00000F8012B491EFBD270470022F6E710B56C
:1001C00013460A4604461946FFF7F0FF204610BDC5
:1001D000F0B480EA0102D40F4200B2EB410F02D228
:1001E0000246084611464A0042D0C30DDDB2C1F3B3
:1001F000C752AD1A202D35DAC1F3160141F40002C1
:1002000004B15242C5F1200602FA06F12A41104417
:10021000B3EBD05F23D0C4B1012DA0EBC35009DCF8
:10022000F0BC4FF0004202EAC352DBB200F500001E
:1002300000F0B4BA400000F1807000EBC350A0F1B0
:10024000807040EAD170490009E0490841EAC07174
:10025000A0EBC35000F50000400800EBC350F0BC19
:1002600000F093BA6142012202EB4101001BF6E764
:10027000F0BC704781F00041AAE780F00040A7E79A
:1002800080EA010210B502F00043400022D04A008B
:100290001FD0010E01EB1261C0F35600C2F35602EB
:1002A00040F4000042F40002A0FB022000047F3969
:1002B000140400D0401C50EA124001D44000491EF2
:1002C000C2B20C0604EBD010401C4008802A02D0B9
:1002D00003E0002010BD20F00100002900DA00201A
:1002E000184310BD30B480EA010202F0004530F03E
:1002F000004221F0004013D090B1C30DD40DC2F3E1
:100300001601C0F31600E41A41F4000140F40002A3
:100310007D34914201D3641C00E04900002C02DAD4
:1003200030BC002070474FF400000023914201D3FD
:10033000891A034340084FEA4101F7D151B1914274
:1003400002D14FF0004105E002D24FF0010101E07F
:100350006FF0010103EBC450284430BC00F015BA23
:10036000420005D0C0F3C7525242914201DC002046
:10037000704700EBC15070472DE9FE4F804681EA7F
:100380000300C00F0C46009021F0004123F000450F
:10039000B8EB0200A94105D24046214690461C46D2
:1003A0000B46024623F00040104347D0270DC7F309
:1003B0000A00C3F30A510290401A019040286BDAF8
:1003C000C3F3130040F4801B0098924620B1002331
:1003D000D2EB030A63EB0B0B01985946C0F14002C4
:1003E000504600F0B1F906460D4650465946019A6E
:1003F00000F0B9F910EB08006141002487EA1152BE
:1004000084EAE7731A4340D0009A62B3019A012A42
:100410004FEA075215DC001B61EB02014FF000426E
:1004200002EA0752CDE90042001C41F58011324634
:100430002B4600F0F0F903B0BDE8F08F40462146AE
:10044000F9E7001B61EB0201001C41F58013001865
:100450005B412018A2F5001747EB030140EAD57075
:10046000B6196D4111E06D084FEA360645EAC075D0
:100470004FEA0752001B61EB0201001C41F580119D
:1004800049084FEA30000019514132462B4603B06B
:10049000BDE8F04F00F0B0B9009801224000002301
:1004A000D0EB020263EBE073009821464FEAE07460
:1004B000B8EB000061EB0401E9E783F000435BE780
:1004C00081F0004158E72DE9FE4F81EA030404F072
:1004D000004421F0004100944FF0000B23F0004352
:1004E00050EA01045ED052EA03045BD0C3F30A541D
:1004F000C1F30A552C44A4F2F3340194A0FB025436
:10050000C1F3130141F48011C3F3130343F48013C7
:1005100001FB024400FB034E840A970A44EA81541B
:1005200047EA8357A4FB076802958D0A05FB0785F8
:100530004FEA932C04FB0C542705029D4FEA065802
:1005400047EA1637B5EB08056EEB070C870E920EDF
:1005500047EA811742EA8312A7FB0201B6EB0B01BF
:1005600064EB00042B0D43EA0C335E1844EB1C5083
:10057000DA465146E7FB0201C5F313044FEA0B3399
:1005800043EA14534FEA0432019C43EA0603A4F100
:100590000C040294009CCDE900B400F03CF903B0D7
:1005A000BDE8F08F00200146F9E72DE9F04D81EA22
:1005B000030404F0004B21F0004514464FF0000AFC
:1005C00023F0004150EA050220D054EA01021DD078
:1005D000C5F30A570246C5F31303C1F31300C1F371
:1005E0000A5640F4801543F48013A7EB0608101B4D
:1005F000D64608F2FD3873EB050002D308F1010876
:1006000001E092185B41B8F1000F03DA00200146C7
:10061000BDE8F08D00204FF48011064684460EE0C0
:10062000171B73EB050705D3121B63EB050306438A
:100630004CEA010C49084FEA300092185B4150EA3D
:100640000107EDD152EA030012D082EA040083EAE6
:100650000501084305D0101BAB4106D2012200233F
:1006600006E000224FF0004302E06FF00102531059
:100670001AEB06004CEB085110EB0A0041EB0B01A2
:10068000BDE8F04D00F0B8B8C10F80EAE070084452
:10069000CA079623002100F081B820F00040C10D68
:1006A000C0F3160040F400007F2901DA00207047F3
:1006B000962903DCC1F19601C840704796398840FD
:1006C000704700F0004230F000400AD0C10D01F543
:1006D0006071C0F3160042EA0151C208400711439D
:1006E000704700200146704701F0004330B421F00C
:1006F000004150EA010206D00A0DA2F56072C1F372
:100700001301002A02DC30BC00207047440F44EA89
:10071000C104C100E01830BC00EBC25000F035B895
:10072000002801DBC0F10040002901DBC1F10041DC
:1007300081427047002801DBC0F10040002901DB45
:10074000C1F1004188427047202A04DB203A00FAB8
:1007500002F1002070479140C2F1200320FA03F318
:10076000194390407047202A06DBCB17203A41FA04
:1007700002F043EAE07306E041FA02F3D040C2F12E
:10078000200291400843194670470029A8BF7047CE
:10079000401C490008BF20F00100704710B4B0FAB7
:1007A00080FC00FA0CF050EA010404BF10BC704752
:1007B00049B1CCF1200421FA04F411FA0CF118BF6C
:1007C000012121430843A3EB0C01CB1D4FEA00613B
:1007D0004FEA102042BF002010BC704700EBC3500E
:1007E00010440029A4BF10BC7047401C490008BF3A
:1007F00020F0010010BC704710B5141E73F1000406
:1008000008DA401C41F1000192185B411A4301D102
:1008100020F0010010BD2DE9F04D92469B4611B12C
:10082000B1FA81F202E0B0FA80F220329046FFF78E
:100830008BFF04460F4640EA0A0041EA0B0153468B
:100840005A46084313D0114653EA010019D0C8F1A3
:1008500040025046FFF788FC05460E465046594672
:100860004246FFF771FF084305D0012004E020460F
:100870003946BDE8F08D0020054346EAE0762C437A
:1008800037430A986305E40AA0EB08000022FD0A3A
:1008900044EA47540A3002D500200146E9E7010541
:1008A00010196941DDE9084500196941BDE8F04DBD
:1008B000A2E70000064C074D06E0E06840F00103A7
:1008C00094E8070098471034AC42F6D3FFF734FCA5
:1008D0006432000884320008FEE7704770B50446B1
:1008E00000F00CF90546601C02D00448007804446E
:1008F00000F004F9401BA042FAD370BD680000204C
:100900002DE9F84FDFF8B8A100220AF1040B1446D4
:1009100001274FF00F090BF1040E00BF0B6807FA17
:1009200004F52B40AB4274D1DFF898C14E68A6EBBA
:100930000C0866452BD00DDC032E34D005DC36B315
:10094000012E19D0022E2FD11BE0112E16D0122EFF
:100950002AD119E0B8F5881F19D006DCB8F5803F18
:1009600015D0B8F5801F1FD111E0B8F5001F0ED0CB
:10097000B8F5041F18D10AE0CA6815E0CA68121D4C
:1009800012E0CA6808320FE0CA680C320CE08A68CC
:100990002AB1012A4FF0080203D0456104E0042285
:1009A00002E0056100E00022FF2B01D8064601E0CD
:1009B00000F104064FEA840501D9A5F12005D6F817
:1009C00000C009FA05F82CEA080C02FA05F54CEA11
:1009D000050CC6F800C04D68ED006AD53A4DAE6909
:1009E00046F00106AE61AD6924F0030605F001058D
:1009F0000095364D06EB050CDCF80850A6074FEACB
:100A0000167809FA08F6B543314EB04202D10026F5
:100A10001AE04EE02F4EB04201D1012614E02E4ED6
:100A2000B04201D102260FE02C4EB04201D1032684
:100A30000AE02B4EB04201D1042605E0294EB04217
:100A400001D1052600E0062606FA08F62E43CCF86A
:100A500008604D68DAF80060ED03554601D51E4385
:100A600000E09E432E604D68AD0305D5DBF80060C5
:100A70001E43CBF8006004E0DBF800509D43CBF848
:100A800000504D68DEF80060ED02754601D51E434A
:100A900000E09E432E604D68AD0205D5084D0C3533
:100AA0002E681E432E6004E0054E0C3635689D43CB
:100AB0003560641C102CFFF431AFBDE8F88F0000E6
:100AC000000401400000111000100240000001402D
:100AD00000080140000C01400010014000140140DA
:100AE00000180140001C0140C2684A40C2607047C3
:100AF0000AB1016170470904FBE700000148806802
:100B0000704700006800002070B504001BD094F806
:100B10003D00002520B984F83C50204600F0E8FA5A
:100B2000242084F83D002068016821F00101016063
:100B300000F04CFC404A6168914201D83F4900E016
:100B40003F49884201D2012070BD3E492368B0FB75
:100B5000F1F159606368934206D94FF49673594393
:100B60004FF47A73B1FBF3F12368491C1962616891
:100B7000914210D84900401EB0FBF1F2521CC2F362
:100B80000B02042A01D2042022E0B0FBF1F0401C49
:100B9000C0F30B001CE0A368CBB301EBC10202EB76
:100BA0000116421EB2FBF6F2521C42F480421205BC
:100BB00036D06BB301EBC10202EB0111401EB0FB5A
:100BC000F1F0401CC0F30B0040F4804040F40040C2
:100BD0002168C861D4E90701084321680860D4E9A5
:100BE0000310084321688860D4E90501084321689F
:100BF000C8602068016841F001010160256420207F
:100C000084F83D00256384F83E50002070BD00E06C
:100C100008E001EB4106421EB2FBF6F2521CC6E7A9
:100C20000120D5E701EB4101401EB0FBF1F0401C73
:100C3000C0F30B00CAE70000A086010080841E00FC
:100C400000093D0040420F002DE9FF4F81B0994659
:100C50008B4604464FF00108FFF750FF054694F815
:100C60003D0020287BD1192301224D4920460095C3
:100C700001F03BF8002872D194F83C0001286ED0B6
:100C8000012084F83C0020680168C90703D101688D
:100C900041F0010101602068016821F400610160F8
:100CA000242084F83D00002626643E48E062202788
:100CB0002068016841F4807101604B4600224FF0CA
:100CC00001112046009501F010F8002858D1216844
:100CD0000BF0FE000861FFF711FF21680546486927
:100CE0004969C0F3400094F83D20C1F380214FF0E2
:100CF000A00A12E0B9F1000F04D0FFF7FFFE411B7C
:100D0000494501D984F83DA0216848694969C0F383
:100D1000400094F83D20C1F38021084301D1A02A6E
:100D2000E8D184F83D7020684169C943890717D428
:100D3000016841F4007101602068416980691923EC
:100D4000012217492046009500F0CFFFC0B984F872
:100D50003D7084F83C60002005B0BDE8F08F1DE0D8
:100D6000016841F40071016021686FF4806048619E
:100D7000192301220A492046009500F0B6FF08B168
:100D80000320E9E74146039808F1010881428FD327
:100D900084F83D7084F83C600120DDE70220DBE749
:100DA000020010000000FFFF2DE9F84F1F4690469B
:100DB0008A460446DDF82890FFF7A0FE054694F821
:100DC0003D0020287ED11923012278492046009534
:100DD00000F08BFF0028F5D194F83C00012871D079
:100DE000012084F83C0020680168C90703D101682C
:100DF00041F0010101602068016821F40061016097
:100E0000222084F83D00102084F83E00002626644D
:100E1000C4F8248067856648E062608D20852B4693
:100E20004A465146204600F064FE28B1206C84F802
:100E30003C60042850D073E0208D5E4F68B10128DB
:100E400014D00228206801681ED041F4806101603E
:100E500020684169806900909AE020684169816951
:100E60000091016841F40071016091E0206801681F
:100E700021F48061016072B6206841698169009146
:100E8000016841F400710AE041F40061016072B64A
:100E90002068416981690091016821F480610160E5
:100EA00062B675E0032850D801280CD002284B46C2
:100EB0004FF0000239462046009512D000F015FF91
:100EC00070BB13E070E02A464946204600F082FFDE
:100ED00028B1206C202823D00120BDE8F88F20689D
:100EE0004BE000F002FFD8B972B61BE02068016841
:100EF00021F48061016072B620680169606A421C59
:100F000062620170208D401E2085608D401E6085CC
:100F10004B46002239462046009500F0E6FE08B117
:100F20000320DAE72068016841F40071016020685D
:100F30000169606A421C62620170208D401E20853A
:100F4000608D401E608562B6C9E72A464946204644
:100F500000F040FF0028BCD120680169606A421C93
:100F600062620170208D401E2085608D401E60856C
:100F700020684169C94349070AD40169606A421C73
:100F800062620170208D401E2085608D401E60854C
:100F9000208D002886D1202084F83D0084F83E6012
:100FA00084F83C60002098E7022096E702001000D9
:100FB0000000FFFF040001002DE9F84F1F46904696
:100FC0008A460446DDF82890FFF798FD064694F817
:100FD0003D0020287ED11923012243492046009656
:100FE00000F083FE00287DD194F83C00012879D0E0
:100FF000012084F83C0020680168C90703D101681A
:1010000041F0010101602068016821F40061016084
:10101000212084F83D00102084F83E00002525643E
:10102000C4F8248067853148E062608D20853346AE
:101030004A465146204600F0CBFD28B1206C84F88A
:101040003C5004284CD00DE0206841698069009034
:1010500030E032464946204600F0EDFE28B1206CD3
:10106000042838D00320BDE8F88F606A411C616213
:10107000216800780861608D401E6085208D401ECB
:1010800080B2208521684A69D24352070BD450B1FF
:10109000606A421C626200780861608D401E608553
:1010A000208D401E208532464946204600F0F6FD40
:1010B0000028D4D1208D0028CBD154F83D0B0168F5
:1010C00041F400710160202004F81E09E57765777E
:1010D0000020C8E706E02068016841F40071016063
:1010E0000120C0E70220BEE7020010000000FFFF61
:1010F00010B586B000210091019102910391006822
:10110000104988421BD1104CA06940F00800A06132
:10111000A069694600F0080004904FF44060009018
:1011200012200190032003900848FFF7E9FBE069D3
:1011300040F48000E061E06900F48000049006B0B3
:1011400010BD00000058004000100240000C01409B
:10115000024881680278114481607047680000206D
:10116000074810B5016841F010010160032000F04C
:1011700065F8002000F006F800F024F8002010BD0B
:101180000020024070B50D4D04464FF47A71287866
:10119000B1FBF0F00A490968B1FBF0F000F0EEFA9B
:1011A00048B9102C07D200222146501E00F026F824
:1011B00000206C6070BD012070BD00006800002040
:1011C000740000200B4808B5816941F0010181617C
:1011D000816901F001010091C16941F08051C16153
:1011E000C06900F0805000900348416821F0E06140
:1011F000416008BD0010024000000140F0B40E4BF9
:101200001B680C46C3F30223C3F10705042D00D964
:101210000425191D072901D2002300E0DB1E012649
:1012200006FA05F1491E214099409E40761E16405F
:101230003143F0BC01F010B90CED00E0064900F0BC
:10124000070208684FF6FF03184040EA0220034AED
:1012500010430860704700000CED00E00000FA0544
:101260002DE9F047DFF8548105460E46D8F8000016
:1012700000F00700B0420CD2D8F8001021F00701AE
:101280003143C8F80010D8F8000000F00700B04261
:101290006FD128684A4C810712D5400703D5606892
:1012A00040F4E06060602878000703D5606840F48F
:1012B000605060606068A96820F0F00008436060DA
:1012C0002878C00744D06868012816D02168022811
:1012D00016D0890700294CDA616821F00301014327
:1012E0006160FFF70BFC6968074641F2883001290D
:1012F0000ED00229814618D026E021688903E9E74B
:101300008901E7E7FFF7FAFBC11B494501D918E05E
:1013100081466068C0F381000128F3D118E000BF66
:10132000FFF7ECFBC11B49450BD86068C0F3810097
:101330000228F5D10CE000BFFFF7E0FBC11B4945D7
:1013400002D90320BDE8F087606810F00C0FF3D1DC
:10135000D8F80010404601F00701B1420BD90168EE
:1013600021F0070131430160006800F00700B0423E
:1013700001D00120E6E72878400705D56068E968D4
:1013800020F4E060084360602878000706D56068B4
:10139000296920F4605040EAC100606000F036F82E
:1013A0006168084AC1F30311515CC84006490860EE
:1013B0000020FFF7E7FE0020C4E700000020024005
:1013C000001002404C320008740000200448054917
:1013D00000684968044AC1F30221515CC840704763
:1013E00074000020001002405C32000804480549E7
:1013F00000684968044AC1F3C221515CC840704783
:1014000074000020001002405C32000812A185B078
:101410000FC98DE80F0014A0144A006804905168A9
:10142000134801F00C03042B10D0082B0ED1C1F38C
:101430008343C9031DF803000AD5516804AAC1F308
:101440004041515C0A4A5043B0FBF1F005B070478F
:1014500008494843FAE700000203040506070809A3
:101460000A0B0C0D0E0F10100102000000100240BC
:1014700000127A0000093D002DE9F84F044600787B
:10148000B94DC00748D06868C0F38100012807D073
:101490006868C0F38100022809D16868C00306D5D6
:1014A0002868800338D5606800286FD034E0606811
:1014B000B0F5803F0BD010B1B0F5A02F11D0286847
:1014C00020F480302860286820F4802002E028681A
:1014D00040F480302860606888B1FFF70FFB064653
:1014E00009E0286840F480202860F0E7FFF706FB59
:1014F000801B642875D828688003F7D50CE0FFF7B7
:10150000FDFA064605E000BFFFF7F8FA801B6428E5
:10151000F0D828688003F7D42078944E80074FF0E5
:1015200001094FF000083BD5686810F00C0F07D098
:101530006868C0F38100022809D16868C00306D436
:101540002868800714D5206901281FD110E0206980
:10155000B0B1C6F80090FFF7D1FA074605E000BF2A
:10156000FFF7CCFAC01B0228C4D828688007F7D53B
:101570002868616920F0F80040EAC10028600FE0A7
:10158000C6F80080FFF7BAFA074606E0E9E000BFB8
:10159000FFF7B4FAC01B022823D828688007F7D4C5
:1015A000207800072CD57248A169D9B1C0F8009005
:1015B000FFF7A4FA074604E0FFF7A0FAC01B0228D1
:1015C0000FD8686A8007F7D56A484FF4FA51006867
:1015D000B0FBF1F0009000BF0098411E0091FAD2DC
:1015E0000EE080E0C0F80080FFF788FA074604E0CC
:1015F000FFF784FAC01B022875D8686A8007F7D401
:101600002078400760D5E8690027C00008D4E86961
:1016100040F08050E861E869012700F080500090B8
:1016200055480168C90513D40168834641F48071A7
:101630000160FFF763FA824606E000BFFFF75EFA3B
:10164000A0EB0A0064284ED8DBF80000C005F5D5F1
:10165000E06801280AD008B1052813D0286A20F0D4
:1016600001002862286A20F0040002E0286A40F0A5
:1016700001002862E06841F2883B98B1FFF73EFA2A
:1016800082460BE0286A40F004002862EEE700BFC3
:10169000FFF734FAA0EB0A0159455AD8286A8007A7
:1016A000F6D50CE0FFF72AFA824605E0FFF726FAA6
:1016B000A0EB0A0159454CD8286A8007F6D41FB11F
:1016C000E86920F08050E861E06988B36968C1F397
:1016D0008101022945D00228C6F8608004D0FFF7B6
:1016E0000DFA044638E034E0FFF708FA074604E054
:1016F000FFF704FAC01B02282BD828688001F7D412
:10170000206AB0F5803F05D16868A16820F40030F8
:1017100008436860D4E908010843696821F474113A
:1017200008436860C6F86090FFF7E8F9044606E0F1
:1017300015E000BFFFF7E2F9001B022809D828686E
:101740008001F7D50BE000BFFFF7D8F9001B022896
:1017500002D90320BDE8F88F28688001F4D4002066
:10176000F8E70120F6E700000010024000004242C6
:1017700080044242740000200070004010B5401EFA
:10178000B0F1807F01D3012010BD4FF0E0246061F3
:101790000F21601700F060FE0020A061072020618B
:1017A000002010BD30B590F83C20012A20D0012245
:1017B00080F83C20022380F83D3003685C6824F008
:1017C00070045C6003685C680D682C435C600368AF
:1017D0009C6824F080049C6003689C6849680C4302
:1017E0009C6080F83D20002180F83C10084630BD08
:1017F000022030BD00B585B0002100910191029119
:1018000003911A4B02681A4802219A421AD182693E
:1018100042F0100282618069039100F01000049090
:101820004020CDE9000169461248FFF769F81248E7
:10183000416821F4406141F0E06141F44061416060
:1018400005B000BD0D4B9A42FAD1826942F0040204
:1018500082618069039100F0040004900820CDE9C2
:10186000000169460648FFF74BF8E9E7000400402D
:10187000001002400010014000000140000C004038
:101880000008014070B5044690F83C000D46012860
:101890000DD0012684F83C60022084F83D0042B15E
:1018A000042A18D0082A2AD00C2A4DD139E0022067
:1018B00070BD206800F0F6FF2068816941F00801E2
:1018C00081612068816921F004018161206881695A
:1018D0002A69114311E0206801F014F82068816939
:1018E00041F4006181612068816921F48061816136
:1018F000206881692A6941EA0221816124E0206827
:1019000001F036F82068C16941F00801C161206822
:10191000C16921F00401C1612068C1692A691143CC
:1019200011E0206801F058F82068C16941F40061B5
:10193000C1612068C16921F48061C1612068C16909
:101940002A6941EA0221C16184F83D60002084F8DF
:101950003C0070BD10B5040003D094F83D0010B1F8
:1019600007E0012010BD002084F83C00204600F074
:101970000DF8022084F83D00211D206800F040FF92
:10198000012084F83D00002010BD000008B50C4A7D
:1019900001680C48914207D1C16941F00201C1615F
:1019A000C06900F0020009E0074A914207D1C1690D
:1019B00041F00801C161C06900F00800009008BD55
:1019C0000004004000100240000C004010B5044626
:1019D0000068012200F05AFF08492068884202D0BE
:1019E0000749884203D1416C41F4004141642068B9
:1019F000016841F001010160002010BD002C014090
:101A00000034014070B5040004D094F83D00002576
:101A100010B106E0012070BD84F83C50204600F073
:101A20001BF8022084F83D00204600F0FDFF2068EE
:101A3000016921F4804101612068416921F02A0196
:101A400041612068C16841F40051C16025640120F2
:101A500084F83D00002070BD30B585B000240094AE
:101A600001940294039400681449884224D11448D4
:101A7000816941F480418161816901F4804104916F
:101A8000816941F00401816180690E4D00F004001C
:101A900004904FF4407000900220019003200390C6
:101AA00069462846FEF72CFF2815CDE90004694653
:101AB00028460294FEF724FF05B030BD00380140EF
:101AC0000010024000080140FEE701684A69D24365
:101AD00052050CD46FF480624A6104210164002134
:101AE00040F8301F2022427301730120704700200C
:101AF00070472DE9F84F0446C06A1E4692460D46CF
:101B000021680A6842F480620A60042807D001282C
:101B100005D010F5803F02D0206B112804D1206839
:101B2000016841F4807101604FF0011853460022B2
:101B300041462046009600F0D8F8B8BB206908F16D
:101B40000109B0F5804F12D00620216800EAD517B0
:101B500047F0F00008613346524608F1070120467D
:101B600000F0F4F838B1206C04282FD01EE0E8B261
:101B700040F001001FE02168E8B208613346524698
:101B80004946204600F0E2F80028ECD1206841697F
:101B900081690091016841F480710160534600221F
:101BA00041462046009600F0A0F810B10320BDE8A1
:101BB000F88F47F0F10021680861334652464946E4
:101BC000204600F0C3F80028CDD1F0E70120EEE771
:101BD000F8B50446C06A1E460D461746042807D0CD
:101BE000012805D010F5803F02D0206B122804D1C7
:101BF0002068016841F480710160134600224FF0B3
:101C000001112046009600F070F8A0B92069B0F5E7
:101C1000804F12D00620216800EAD51040F0F00075
:101C2000086133463A460E49204600F08FF838B135
:101C3000206C042811D00320F8BD05F0FE0000E060
:101C4000E8B221680861064933463A46891F2046B2
:101C500000F07CF80028EBD1F8BD0120F8BD0000B1
:101C6000080001007CB504468DF804106425014687
:101C7000012301AA08480095FFF79EF900208DF87E
:101C8000050001230DF10502214603480095FFF7E9
:101C90008BF89DF805007CBD7800002070B51646D5
:101CA0000D4604461AE02046FFF70FFF08B1012059
:101CB00070BD681C12D025B1FEF720FF801BA84222
:101CC0000CD954F8400F40F0200044F810090020CF
:101CD0002060202161732073032070BD206840695B
:101CE000C0434007DFD4002070BD2DE9F0471E46F9
:101CF00090460D460446C1F30747DDF8209012E0F8
:101D0000701C10D02EB1FEF7F9FEA0EB0900B04216
:101D100009D9002044F8300F20216173A07320738B
:101D20000320BDE8F0872068012F0AD0806925EAEA
:101D300000000004000C06D000214145E0D0002046
:101D4000EFE74069F3E70121F7E700002DE9F047ED
:101D50009A4691460D46044600264FF02008C1F3EE
:101D600007472AE020684069C043400512D4206834
:101D7000016841F40071016021686FF4806048617E
:101D800004202064266384F83D8084F83C600120B0
:101D9000BDE8F087B9F1FF3F0FD0B9F1000F05D0D2
:101DA000FEF7ACFEA0EB0A01494506D944F8306FB6
:101DB00084F80D8026730320EAE72068012F07D0FE
:101DC000D0F8180025EA00000004000CE0D0C9E7B4
:101DD0004069F7E72DE9F041002590460E4604469C
:101DE000202721E04069C043C0060CD421686FF071
:101DF000100048612564256384F83D7084F83C50E8
:101E00000120BDE8F0812EB1FEF778FEA0EB0800BE
:101E1000B04209D954F8400F40F0200044F80409BA
:101E2000677025700320ECE720684169C9434906C3
:101E3000D8D40020E5E770B516460D4604461AE0F2
:101E40002046FFF742FE08B1012070BD681C12D089
:101E500025B1FEF753FE801BA8420CD954F8400F61
:101E600040F0200044F81009002020602021617318
:101E70002073032070BD20684069C0430006DFD492
:101E8000002070BD1CB502238DF804106421009160
:101E90008DF80520014601AA0148FFF78DF81CBD09
:101EA0007800002030B585B00024184800940194D3
:101EB00002940394816941F004018161816901F018
:101EC00004010491816941F008018161816901F097
:101ED00008010491816941F01001816180690C4D14
:101EE00000F010000490002222212846FEF700FE98
:101EF000222000900120CDE90104022003906946D0
:101F00002846FEF7FDFC05B030BD00000010024081
:101F1000000C014010B58AB0002407941C216846CB
:101F20000894FEF74AF91248104901605021C0E9AF
:101F300001144FF4FA61C0E903148461FFF70AFD4C
:101F4000079407A90A480894FFF72CFC6020CDE904
:101F5000000402940022694605480494FFF792FCAD
:101F60000348FFF747FC0AB010BD00000004004022
:101F7000CC00002010B58AB0002407941C216846CC
:101F80000894FEF71AF91248104901605021C0E97F
:101F900001144FF4FA61C0E903148461FFF7DAFC1D
:101FA000079407A90A480894FFF7FCFB6020CDE9D5
:101FB000000402940C22694605480494FFF762FC71
:101FC0000348FFF717FC0AB010BD0000000C0040EA
:101FD0000C0100202DE9FF4FFF4C97B081469A4637
:101FE00019992069FEF74CF906461899E068FEF742
:101FF00047F90546A068494680F00040FEF740F9E1
:102000002946FEF737F93146FEF734F94FF0FF372E
:102010003946FEF7A5F9804618992069FEF730F990
:1020200006461999E068FEF72BF9616805464846AF
:10203000FEF726F92946FEF7CBF83146FEF71AF9E6
:102040003946FEF78DF9216906464846FEF718F92C
:1020500083461999A068FEF713F905461899606838
:10206000FEF70EF92946FEF705F95946FEF7B0F8D6
:102070003946FEF775F9E16805464846FEF700F96E
:1020800083461899A068FEF7FBF8814619996068A5
:10209000FEF7F6F84946FEF79BF85946FEF7EAF8D0
:1020A0003946FEF75DF907461AF0FF4F07D124982D
:1020B00010F0FF4F03D1259810F0FF4F7ED02599E7
:1020C0000846FEF7DDF8249983460846FEF7D8F85F
:1020D000814651460846FEF7D3F84946FEF778F8A0
:1020E0005946FEF775F800F073FE814601465046EA
:1020F000FEF7C6F81A9049462498FEF7C1F82490D6
:1021000049462598FEF7BCF8259001216068FEF746
:1021100027F914900121A068FEF722F912900121FD
:10212000E068FEF71DF9139001212069FEF718F908
:10213000159002216068FEF713F908900221A0684B
:10214000FEF70EF907900221E068FEF709F9099001
:102150000321A068FEF704F90C900321E068FEF764
:10216000FFF80A9061686068FEF78AF81090A1682D
:10217000A068FEF785F80190E168E068FEF780F856
:10218000009021692069FEF77BF80290249912984B
:10219000FEF776F8834601990898FEF771F88246B3
:1021A0001A991398FEF76CF8814600990898FEF783
:1021B00067F84946FEF70CF8514600E0EEE0FEF7FE
:1021C00007F85946FEF756F8834625990798FEF713
:1021D00057F80F9000990C98FEF752F80E9001995D
:1021E0000C98FEF74DF8824624991498FEF748F8AB
:1021F000039002211098FEF7B3F81690A168FEF73D
:102200003FF881461A991598FEF73AF8119002990D
:102210000798FEF735F81199FEF72CF84946FDF7B7
:10222000D7FF0399FEF726F80799FEF723F85146E2
:10223000FDF7CEFF0E99FDF7CBFF0F99FDF7C8FF15
:10224000824625990998FEF71BF8814600990A985D
:10225000FEF716F8079001990A98FEF711F80A9010
:1022600024991598FEF70CF80C9002990998FEF73E
:1022700007F80E901A991498FEF702F80F90169826
:10228000E168FDF7FDFF0F99FDF7A2FF0E99FDF73D
:102290009FFF0C99FDF7EEFF0999FDF7EBFF0A99F7
:1022A000FDF796FF0799FDF793FF4946FDF790FF6D
:1022B000029024991398FDF7E3FF079002210098FC
:1022C000FEF74EF82169FDF7DBFF81461A99129857
:1022D000FDF7D6FF009002210198FEF741F8216931
:1022E000FDF7CEFF0099FDF7C5FF4946FDF770FFEA
:1022F0000799FDF7BFFF81460146FDF7C1FF02992F
:1023000009900846FDF7BCFF514608900846FDF7C6
:10231000B7FF594607900846FDF7B2FF0799FDF74A
:1023200057FF0899FDF754FF0999FDF751FF00F099
:102330004FFD014600905846FDF7A2FF059050461C
:102340000099FDF79DFF824600990298FDF798FFDE
:10235000834648460099FDF793FF8146059920681A
:10236000FDF78EFF4146FDF788FF80465146206805
:10237000FDF786FF3146FDF780FF06465946206887
:10238000FDF77EFF2946FDF778FF054649462068A0
:10239000FDF776FF3946FDF770FF07466FF0080935
:1023A00049464046FDF7DCFF6168FDF711FF6060BC
:1023B00049463046FDF7D4FFA168FDF709FFA0604C
:1023C00049462846FDF7CCFFE168FDF701FFE060D4
:1023D0004946384602E0000054000020FDF7C0FFE7
:1023E0002169FDF7F5FE206121692069FDF748FFAD
:1023F000E1680746E068FDF743FFA1680646A0686C
:10240000FDF73EFF616805466068FDF739FF294624
:10241000FDF7DEFE3146FDF7DBFE3946FDF7D8FE5F
:1024200000F0D6FC054601466068FDF729FF6060B4
:102430002946A068FDF724FFA0602946E068FDF763
:102440001FFFE06029462069FDF71AFF20611BB0DD
:10245000BDE8F08FFEE770470907090E002806DA8D
:1024600000F00F0000F1E02080F8141D704700F12B
:10247000E02080F80014704770472DE9FF470646BA
:102480007520DDF830908DF8080042F0D0059846B0
:102490000F460D700523022229463046FEF7D4FB75
:1024A00040BB4FF47A74012302AA294630460094B7
:1024B000FEF782FDF0B9012303AA294630460094B5
:1024C000FEF772FCB0B903E0032004B0BDE8F0876A
:1024D0009DF80C006828F7D16B208DF804000020CF
:1024E0008DF80500022301AA294630460094FEF724
:1024F00063FD08B10120E8E707223946304600F0C5
:10250000D9F842463946304600F08EF84A463946F8
:10251000304600F0E3F80020D7E72DE9FF410C46F4
:102520003B218DF80C10277806464FF47A7501236D
:1025300003AA394630460095FEF73EFD0028F6D145
:10254000062301AA394630460095FEF72DFC0028E7
:10255000F6D1BDF8040040BAA081BDF8060040BA2B
:10256000E081BDF8080040BA208204B00020BDE838
:10257000F0812DE9FF410C4643218DF80C1027789E
:1025800006464FF47A75012303AA39463046009572
:10259000FEF712FD0028F6D1062301AA394630467F
:1025A0000095FEF701FC0028F6D1BDF8040040BA02
:1025B0006082BDF8060040BAA082BDF8080040BAAB
:1025C000E08204B00020BDE8F0810000FEB50D46B9
:1025D00041218DF808102F7806464FF47A740123B4
:1025E00002AA394630460094FEF7E6FC0028F6D1F0
:1025F000022301AA394630460094FEF7D5FB002895
:10260000F6D1BDF8040040BA00B2FEF73DF8044927
:10261000FDF768FE0349FDF7DBFDA8610020FEBD64
:102620000000AA43B81E12422DE9FE43074691F866
:1026300000801C2016460D468DF808004FF47A7471
:10264000012302AA414638460094FEF7B5FC002853
:10265000F6D1012301AA414638460094FEF7A4FBB7
:102660000028F6D19DF8040000F0E70040EAC6001B
:102670008DF80400012301AA414638460094FEF774
:102680009BFC0028F6D136B1012E07D0022E0BD0CC
:10269000032E06D10BE04FF0625001E04FF0645082
:1026A000A8600020BDE8FE834FF06650F8E74FF0C9
:1026B0006850F5E77CB504460D7819208DF80400C4
:1026C0008DF805204FF47A76022301AA2946204688
:1026D0000096FEF771FC0028F6D17CBD2DE9FE4383
:1026E000074691F800801B2016460D468DF808001D
:1026F0004FF47A74012302AA414638460094FEF74B
:102700005BFC0028F6D1012301AA4146384600941B
:10271000FEF74AFB0028F6D19DF8040000F0E70020
:1027200040EAC6008DF80400012301AA414638465C
:102730000094FEF741FC0028F6D136B1012E06D0F8
:10274000022E09D0032E04D108E0054800E0054818
:1027500068600020BDE8FE830348F9E70348F7E717
:102760002D23FA3B2D237A3C90C1F93C90C1793D51
:102770007047FEF7EDBC10B590B028216846FDF714
:102780001CFD14210AA8FDF718FD0220009001206D
:10279000049010200024059007946846FEF76CFE14
:1027A0000F20CDE90A040C940D9400210AA80E9480
:1027B000FEF756FD10B010BD0D48016841F0010153
:1027C000016041680B4A1140416001680A4A1140AA
:1027D0000160016821F480210160416821F4FE015B
:1027E00041604FF41F0181600449C00308607047D5
:1027F000001002400000FFF8FFFFF6FE08ED00E0C9
:10280000F0B502681C4B1D4D1D4E1E4F1E4C4FF067
:10281000804C984209D0A04207D0604505D0A8421C
:1028200003D0B04201D0B84204D122F0700E4A6801
:1028300042EA0E02984209D0A04207D0604505D076
:10284000A84203D0B04201D0B84203D122F440756F
:10285000CA682A4322F080054A692A4302608A68CE
:10286000C2620A688262984201D0A04201D109691D
:10287000016301214161F0BD002C014000040040D2
:1028800000080040000C00400034014010B5012356
:10289000046A8B409C430462036A8A4013430362C8
:1028A00010BD0000F0B5026A22F001020262036A64
:1028B00042688469124E24F073050C682C4323F09F
:1028C00002058B682B430D4DA84201D0B04205D1C3
:1028D00023F00807CB683B4323F00403A84201D050
:1028E000B04205D14D6922F4407215438A692A43EA
:1028F00042608461496841630362F0BD002C01407D
:1029000000340140F0B5026A22F010020262026A4D
:10291000436884690D6824F4E64444EA05248D681C
:1029200022F0200242EA05120F4D104EA84201D0BB
:10293000B04206D1CF6822F0800242EA071222F0AC
:102940004002A84201D0B04207D14D6923F4406350
:1029500043EA85038D6943EA8503436084614968DE
:1029600081630262F0BD0000002C01400034014090
:10297000F0B5026A22F480720262026A4368C46996
:1029800022F4007224F073050C68124E2C438D68FB
:1029900042EA05220E4DA84201D0B04206D1CF68CE
:1029A00022F4006242EA072222F48062A84201D0A7
:1029B000B04207D14D6923F4405343EA05138D69B2
:1029C00043EA05134360C4614968C1630262F0BD14
:1029D000002C01400034014030B5026A22F48052DC
:1029E0000262046A4268C3690D6823F4E64343EA5D
:1029F00005238D6824F4005444EA0534084DA842A8
:102A000002D0084DA84204D14D6922F4804242EA26
:102A100085124260C36149680164046230BD0000F0
:102A2000002C0140003401402DE9F04104460068CB
:102A3000C16821F00C01C160D4E906010843E268D5
:102A4000216A1143084321680A6922F47C52104329
:102A500040F4006008612169A06862690843216848
:102A6000CB6841F20C65AB431A431043C860206841
:102A7000416921F4407141612849206864254FF083
:102A80003208884218D1FEF7B1FC00EBC00101EB1F
:102A9000001061684900B0FBF1F0B0FBF5F6FEF7FD
:102AA000A5FC00EBC00101EB001061684900B0FB20
:102AB000F1F7FEF79BFC17E0FEF788FC00EBC00186
:102AC00001EB001061684900B0FBF1F0B0FBF5F6D6
:102AD000FEF77CFC00EBC00101EB001061684900CF
:102AE000B0FBF1F7FEF772FC00EBC00101EB001048
:102AF00061684900B0FBF1F0B0FBF5F06FF0180130
:102B0000484307EB800108EB0110B0FBF5F02168AA
:102B100066F31F108860BDE8F081000000380140B6
:102B2000FEE74100080218BF04200A0E18BF40F05B
:102B300001004FF07F4232EA010108BF40F002007D
:102B4000012808BF05207047FDF742BB6FF05E010A
:102B50000807FDF705BC02E008C8121F08C1002ADB
:102B6000FAD170477047002001E001C1121F002A0E
:102B7000FBD170472DE9F0474FF0684202EB40036C
:102B80000C460546B3F1654F3CBF02EB4102B2F182
:102B9000654F7CD2C0F3C753C1F3C7529A1A1B2AA0
:102BA00006DD10F0004F14BF76487748BDE8F08787
:102BB00012F11A0F17DA11F0004F06D010F0004F83
:102BC0000CBF72487248BDE8F08721462846FDF7E1
:102BD00089FB0446FFF7A5FF042808BFFFF7B6FFEF
:102BE0002046BDE8F0874200B2EB410F25D910F036
:102BF000004F19BF674F684E684F694E224685F0F7
:102C0000004415460A4680F0004110460A1A520058
:102C1000B2F1807F40D248406249DFF88CA110F0C9
:102C2000004F18D04FF03F483846FDF723FB0746CA
:102C300051463046FDF71EFB17E011F0004F04BF70
:102C400000263746E2D010F0004F19BF574F584EBC
:102C5000584F594EDAE74FF07C583846FDF7B8FA2E
:102C6000074651463046FDF7B3FA06464146284628
:102C7000FDF706FB2146FDF7ABFA824621464046AA
:102C8000FDF7FEFA2946FDF7F8FA514600E037E075
:102C9000FDF728FB044604E021462846FDF722FB09
:102CA00004460146FDF7ECFA80464449FDF7E8FA90
:102CB0004349FDF78DFA4146FDF7E2FA4149FDF738
:102CC00087FA4146FDF7DCFA3F49FDF781FA4146B4
:102CD000FDF7D6FA3D49FDF77BFA05464146204609
:102CE000FDF7CEFA2946FDF7CBFA3146FDF770FA2B
:102CF0002146FDF76DFA3946BDE8F047FDF768BAA1
:102D00004FF07F42B2EB400F28BFB2EB410F03D22E
:102D1000BDE8F047FFF718BF40EA01035B0008BFBA
:102D200044F0FF410AD0B2EB400F08BFB2EB410FB5
:102D300006D125F0804024F0804105460C4629E765
:102D4000B2EB400F12BF5FEA410245F0FF4004F0D2
:102D500000413FF41FAF4A0092EA40033FF51AAF2B
:102D6000002AACBF4FF09F464FF03E563146FDF76C
:102D700087FA054631462046FDF782FA0446284682
:102D8000214607E7DB0FC9BFDB0FC93FDB0F494017
:102D9000DB0F49C00000C9BF22AAFDB90000C93F2E
:102DA00022AAFD390060ED3EC30ACE37000049C0BB
:102DB00022AA7DBA0000494022AA7D3A2DAD65BD08
:102DC0008FB8D53D0FB511BE61C84C3EA8AAAABEAA
:102DD00010B504464FF0FF31FDF7C2FA0849A1EBE8
:102DE00064042146FDF74CFA2146FDF749FA4FF0FD
:102DF0007F51FDF742FA2146BDE81040FDF740BA89
:102E0000DF59375F88B01422C4A102A8FDF7BCF9CE
:102E1000FEF7A6F9C64E002202213046FDF768FEF5
:102E2000FFF7A9FCFFF73EF8C349C2480025086038
:102E3000C248C1E901054FF48040C1E903504D612A
:102E40008D61CD6108460D62FDF75EFEBA48BC4952
:102E5000D43001604FF4E131C0E901150C21C560A7
:102E6000C0E904518561C5610562FEF7CBFDFFF73E
:102E700051F8FFF77FF8B34C80220A212078FFF742
:102E800001F801220B212078FEF7FCFF1D22092109
:102E90002078FEF7F7FF4FF47A70FDF71FFD4FF42F
:102EA000FA70FDF71BFD64230222D021A248FDF732
:102EB000CBFE18B920213046FDF716FE642302220E
:102EC0001A219D48FDF7C0FE18B902213046FDF7D2
:102ED0000BFE994800215430FEF778FDDFF8688238
:102EE000002003460246009098499348FFF7C5FA30
:102EF00096499148FFF76AFB944D2946A8692063DB
:102F00008D48FFF736FBB5F91210B4F9020091FBBA
:102F1000F0F1E180B5F9141091FBF0F12181B5F9E0
:102F2000161091FBF0F0608129468348FFF7F5FA0F
:102F3000B5F90C10B4F9040091FBF0F10FB2A781C0
:102F4000B5F90E1091FBF0F109B2E181B5F910204D
:102F500092FBF0F006B226820846FDF795FB81460B
:102F60006FF00D01FDF7FCF9794D2946FDF788F961
:102F700060623046FDF788FB83463846FDF784FBE8
:102F80000746B4F90A00FDF77FFB8246B4F9080052
:102F9000FDF77AFB0646B4F90600FDF775FBCDE9AF
:102FA000009B3B4652463146FFF714F869480068DB
:102FB000606369480068A06368480068E063684827
:102FC0000068206400212078FEF74CFE06460121AF
:102FD0002078FEF747FE46EA002060820221207832
:102FE000FEF740FE064603212078FEF73BFE46EA48
:102FF0000020A08204212078FEF734FE0646052139
:103000002078FEF72FFE46EA0020E082B4F9120095
:10301000FDF73AFB0646B4F91400FDF735FB3146DF
:10302000FFF7A8FDFDF74DFB00224E4BFDF74BFAD5
:103030004D4A4E4BFDF7B9FAFDF756FBA06210F171
:10304000FF4F03D34A49FDF7C3F8A062B4F90E005D
:103050005A21484343F6FC7190FBF1F0FDF714FB55
:103060000646A064A06920B9A06A2665E062012036
:10307000A0613146206DFDF7FDF83E49884202DC33
:1030800010F17F5F20D9A06A2065464501D9322022
:1030900018E0AE4201DDE62014E03046FDF711FBFA
:1030A0000022354BFDF70FFA0022344BFDF77DFA75
:1030B0000022334BFDF760F9FDF716FBE061FDF7E9
:1030C000ECFA80B200F0ACF8D4E90A1000F05AF83B
:1030D00080F000406064404501D9322002E0A842FF
:1030E00003DDE62000F086F8FAE6FDF7EAFA0022B2
:1030F000214BFDF7E8F90022204BFDF756FA00229C
:103100001F4BFDF739F9FDF7EFFA2062FDF7C5FA1D
:1031100080B200F06FF8206AE064E1E64D5055207F
:103120004E4F5420574F524B494E470A0000000063
:10313000000C01400058004078000020A0860100EB
:1031400000380140000000200000B4C290010020BF
:103150000000B442580000205C0000206000002005
:103160006400002000806640F1D4C853FB21094070
:103170000000B44300004040000059400080564029
:1031800000C062402DE9F04188460546FDF775F81C
:1031900004461548154E164F85420FDA3946284623
:1031A000FDF716F84146FDF7BBFA07D23146404617
:1031B000FDF760F82946FDF75DF810E039468D42CD
:1031C0000EDD2846FDF756F84146FDF7B3FA07D263
:1031D00031462846FDF751F84146FCF7F9FF044611
:1031E0002046BDE8F08100000000B4420000B44376
:1031F0000000874300B587B06021CDE900100020B2
:1032000002900246049069460448FEF73BFB002109
:103210000248FEF7DBFB07B000BD0000CC00002039
:1032200000B587B06021CDE9001000200290049025
:103230000C2269460448FEF725FB0C210248FEF7E4
:10324000C5FB07B000BD00000C010020000000001D
:103250000000000001020304060708090000000046
:1032600001020304843200080000002078000000FE
:10327000562B0008FC3200087800002038050000BA
:10328000662B00081A000100010000000000000089
:10329000000000000000000000000000000000002E
:1032A0000000C8420000C84200000000000000000A
:1032B000000000000000000000000000000000000E
:1032C00000000000000000000000000000000000FE
:1032D0000000000000000000CDCCCC3D0000803F8D
:1032E00000000000000000000000000001000000DD
:0C32F000100000000000000000A24A04D2
:0400000508000131BD
:00000001FF
